{
  "_format": "hh-sol-artifact-1",
  "contractName": "NatyDAO",
  "sourceName": "contracts/NatyDAO.sol",
  "abi": [
    {
      "inputs": [
        {
          "internalType": "address",
          "name": "_stakingContract",
          "type": "address"
        },
        {
          "internalType": "address",
          "name": "_initialOwner",
          "type": "address"
        }
      ],
      "stateMutability": "nonpayable",
      "type": "constructor"
    },
    {
      "inputs": [
        {
          "internalType": "address",
          "name": "owner",
          "type": "address"
        }
      ],
      "name": "OwnableInvalidOwner",
      "type": "error"
    },
    {
      "inputs": [
        {
          "internalType": "address",
          "name": "account",
          "type": "address"
        }
      ],
      "name": "OwnableUnauthorizedAccount",
      "type": "error"
    },
    {
      "anonymous": false,
      "inputs": [
        {
          "indexed": true,
          "internalType": "address",
          "name": "previousOwner",
          "type": "address"
        },
        {
          "indexed": true,
          "internalType": "address",
          "name": "newOwner",
          "type": "address"
        }
      ],
      "name": "OwnershipTransferred",
      "type": "event"
    },
    {
      "anonymous": false,
      "inputs": [
        {
          "indexed": false,
          "internalType": "uint256",
          "name": "proposalId",
          "type": "uint256"
        },
        {
          "indexed": false,
          "internalType": "string",
          "name": "description",
          "type": "string"
        }
      ],
      "name": "ProposalCreated",
      "type": "event"
    },
    {
      "anonymous": false,
      "inputs": [
        {
          "indexed": false,
          "internalType": "uint256",
          "name": "proposalId",
          "type": "uint256"
        },
        {
          "indexed": false,
          "internalType": "address",
          "name": "voter",
          "type": "address"
        },
        {
          "indexed": false,
          "internalType": "uint256",
          "name": "weight",
          "type": "uint256"
        }
      ],
      "name": "Voted",
      "type": "event"
    },
    {
      "inputs": [
        {
          "internalType": "string",
          "name": "description",
          "type": "string"
        }
      ],
      "name": "createProposal",
      "outputs": [],
      "stateMutability": "nonpayable",
      "type": "function"
    },
    {
      "inputs": [],
      "name": "getProposalCount",
      "outputs": [
        {
          "internalType": "uint256",
          "name": "",
          "type": "uint256"
        }
      ],
      "stateMutability": "view",
      "type": "function"
    },
    {
      "inputs": [],
      "name": "owner",
      "outputs": [
        {
          "internalType": "address",
          "name": "",
          "type": "address"
        }
      ],
      "stateMutability": "view",
      "type": "function"
    },
    {
      "inputs": [
        {
          "internalType": "uint256",
          "name": "",
          "type": "uint256"
        }
      ],
      "name": "proposals",
      "outputs": [
        {
          "internalType": "string",
          "name": "description",
          "type": "string"
        },
        {
          "internalType": "uint256",
          "name": "voteCount",
          "type": "uint256"
        },
        {
          "internalType": "bool",
          "name": "executed",
          "type": "bool"
        }
      ],
      "stateMutability": "view",
      "type": "function"
    },
    {
      "inputs": [],
      "name": "renounceOwnership",
      "outputs": [],
      "stateMutability": "nonpayable",
      "type": "function"
    },
    {
      "inputs": [],
      "name": "stakingContract",
      "outputs": [
        {
          "internalType": "contract NatyStaking",
          "name": "",
          "type": "address"
        }
      ],
      "stateMutability": "view",
      "type": "function"
    },
    {
      "inputs": [
        {
          "internalType": "address",
          "name": "newOwner",
          "type": "address"
        }
      ],
      "name": "transferOwnership",
      "outputs": [],
      "stateMutability": "nonpayable",
      "type": "function"
    },
    {
      "inputs": [
        {
          "internalType": "uint256",
          "name": "proposalId",
          "type": "uint256"
        }
      ],
      "name": "vote",
      "outputs": [],
      "stateMutability": "nonpayable",
      "type": "function"
    }
  ],
  "bytecode": "0x608060405234801561000f575f80fd5b5060405161099238038061099283398101604081905261002e916100f6565b806001600160a01b03811661005c57604051631e4fbdf760e01b81525f600482015260240160405180910390fd5b6100658161008c565b5050600180546001600160a01b0319166001600160a01b0392909216919091179055610127565b5f80546001600160a01b038381166001600160a01b0319831681178455604051919092169283917f8be0079c531659141344cd1fd0a4f28419497f9722a3daafe3b4186f6b6457e09190a35050565b80516001600160a01b03811681146100f1575f80fd5b919050565b5f8060408385031215610107575f80fd5b610110836100db565b915061011e602084016100db565b90509250929050565b61085e806101345f395ff3fe608060405234801561000f575f80fd5b5060043610610085575f3560e01c80638da5cb5b116100585780638da5cb5b146100e4578063c08cc02d14610108578063ee99205c14610119578063f2fde38b1461012c575f80fd5b80630121b93f14610089578063013cf08b1461009e57806349c2a1a6146100c9578063715018a6146100dc575b5f80fd5b61009c610097366004610505565b61013f565b005b6100b16100ac366004610505565b6102fc565b6040516100c09392919061055f565b60405180910390f35b61009c6100d736600461059c565b6103bb565b61009c61043a565b5f546001600160a01b03165b6040516001600160a01b0390911681526020016100c0565b6002546040519081526020016100c0565b6001546100f0906001600160a01b031681565b61009c61013a366004610647565b61044d565b5f6002828154811061015357610153610674565b5f91825260208083203384526003600490930201918201905260409091205490915060ff16156101ba5760405162461bcd60e51b815260206004820152600d60248201526c105b1c9958591e481d9bdd1959609a1b60448201526064015b60405180910390fd5b6001546040516370a0823160e01b81523360048201525f916001600160a01b0316906370a0823190602401602060405180830381865afa158015610200573d5f803e3d5ffd5b505050506040513d601f19601f820116820180604052508101906102249190610688565b90505f81116102815760405162461bcd60e51b8152602060048201526024808201527f4e6f20766f74696e6720706f77657220287374616b6520746f6b656e732066696044820152637273742960e01b60648201526084016101b1565b80826001015f828254610294919061069f565b9091555050335f818152600384016020908152604091829020805460ff1916600117905581518681529081019290925281018290527f1abe610cf2bf87e57dcc1181fcf5ac0934e843d8344ab9eed6e86c799f62585e906060015b60405180910390a1505050565b6002818154811061030b575f80fd5b905f5260205f2090600402015f91509050805f01805461032a906106c4565b80601f0160208091040260200160405190810160405280929190818152602001828054610356906106c4565b80156103a15780601f10610378576101008083540402835291602001916103a1565b820191905f5260205f20905b81548152906001019060200180831161038457829003601f168201915b50505050600183015460029093015491929160ff16905083565b600280546001810182555f91909152600481027f405787fa12a823e0f2b7631cc41b3ba8828b3321ca811111fa75cd3aa3bb5ace01806103fb8482610748565b5060028101805460ff191690556040517f9c770c289ab5bf7e57cb1d23c8ceae993aea46eb64847072fd3d78ca60d3e432906102ef9084908690610808565b61044261048a565b61044b5f6104b6565b565b61045561048a565b6001600160a01b03811661047e57604051631e4fbdf760e01b81525f60048201526024016101b1565b610487816104b6565b50565b5f546001600160a01b0316331461044b5760405163118cdaa760e01b81523360048201526024016101b1565b5f80546001600160a01b038381166001600160a01b0319831681178455604051919092169283917f8be0079c531659141344cd1fd0a4f28419497f9722a3daafe3b4186f6b6457e09190a35050565b5f60208284031215610515575f80fd5b5035919050565b5f81518084525f5b8181101561054057602081850181015186830182015201610524565b505f602082860101526020601f19601f83011685010191505092915050565b606081525f610571606083018661051c565b602083019490945250901515604090910152919050565b634e487b7160e01b5f52604160045260245ffd5b5f602082840312156105ac575f80fd5b813567ffffffffffffffff808211156105c3575f80fd5b818401915084601f8301126105d6575f80fd5b8135818111156105e8576105e8610588565b604051601f8201601f19908116603f0116810190838211818310171561061057610610610588565b81604052828152876020848701011115610628575f80fd5b826020860160208301375f928101602001929092525095945050505050565b5f60208284031215610657575f80fd5b81356001600160a01b038116811461066d575f80fd5b9392505050565b634e487b7160e01b5f52603260045260245ffd5b5f60208284031215610698575f80fd5b5051919050565b808201808211156106be57634e487b7160e01b5f52601160045260245ffd5b92915050565b600181811c908216806106d857607f821691505b6020821081036106f657634e487b7160e01b5f52602260045260245ffd5b50919050565b601f82111561074357805f5260205f20601f840160051c810160208510156107215750805b601f840160051c820191505b81811015610740575f815560010161072d565b50505b505050565b815167ffffffffffffffff81111561076257610762610588565b6107768161077084546106c4565b846106fc565b602080601f8311600181146107a9575f84156107925750858301515b5f19600386901b1c1916600185901b178555610800565b5f85815260208120601f198616915b828110156107d7578886015182559484019460019091019084016107b8565b50858210156107f457878501515f19600388901b60f8161c191681555b505060018460011b0185555b505050505050565b828152604060208201525f610820604083018461051c565b94935050505056fea2646970667358221220e90fbc4eb94da7b0d0bbb1dbe407d699775048a45cc657913af2dc900a1565a764736f6c63430008180033",
  "linkReferences": {},
  "deployedLinkReferences": {}
}