{
  "_format": "hh-sol-artifact-1",
  "contractName": "MockV3Aggregator",
  "sourceName": "contracts/MockV3Aggregator.sol",
  "abi": [
    {
      "inputs": [
        {
          "internalType": "int256",
          "name": "_initialAnswer",
          "type": "int256"
        }
      ],
      "stateMutability": "nonpayable",
      "type": "constructor"
    },
    {
      "inputs": [],
      "name": "latestAnswer",
      "outputs": [
        {
          "internalType": "int256",
          "name": "",
          "type": "int256"
        }
      ],
      "stateMutability": "view",
      "type": "function"
    },
    {
      "inputs": [],
      "name": "latestRoundData",
      "outputs": [
        {
          "internalType": "uint80",
          "name": "roundId",
          "type": "uint80"
        },
        {
          "internalType": "int256",
          "name": "answer",
          "type": "int256"
        },
        {
          "internalType": "uint256",
          "name": "startedAt",
          "type": "uint256"
        },
        {
          "internalType": "uint256",
          "name": "updatedAt",
          "type": "uint256"
        },
        {
          "internalType": "uint80",
          "name": "answeredInRound",
          "type": "uint80"
        }
      ],
      "stateMutability": "view",
      "type": "function"
    }
  ],
  "bytecode": "0x608060405234801561000f575f80fd5b5060405161010938038061010983398101604081905261002e91610035565b5f5561004c565b5f60208284031215610045575f80fd5b5051919050565b60b1806100585f395ff3fe6080604052348015600e575f80fd5b50600436106030575f3560e01c806350d25bcd146034578063feaf968c14604e575b5f80fd5b603b5f5481565b6040519081526020015b60405180910390f35b5f8054604080518381526020810192909252810182905260608101829052608081019190915260a001604556fea2646970667358221220f3e38b59497b22b76f8d7bd474bc4625fd3db6421a96b743cdcf5d47c2a1956764736f6c63430008180033",
  "linkReferences": {},
  "deployedLinkReferences": {}
}