{
  "_format": "hh-sol-artifact-1",
  "contractName": "NatyStaking",
  "sourceName": "contracts/NatyStaking.sol",
  "abi": [
    {
      "inputs": [
        {
          "internalType": "address",
          "name": "_stakingToken",
          "type": "address"
        },
        {
          "internalType": "address",
          "name": "_rewardToken",
          "type": "address"
        },
        {
          "internalType": "address",
          "name": "_priceFeed",
          "type": "address"
        },
        {
          "internalType": "address",
          "name": "_initialOwner",
          "type": "address"
        }
      ],
      "stateMutability": "nonpayable",
      "type": "constructor"
    },
    {
      "inputs": [
        {
          "internalType": "address",
          "name": "owner",
          "type": "address"
        }
      ],
      "name": "OwnableInvalidOwner",
      "type": "error"
    },
    {
      "inputs": [
        {
          "internalType": "address",
          "name": "account",
          "type": "address"
        }
      ],
      "name": "OwnableUnauthorizedAccount",
      "type": "error"
    },
    {
      "inputs": [],
      "name": "ReentrancyGuardReentrantCall",
      "type": "error"
    },
    {
      "anonymous": false,
      "inputs": [
        {
          "indexed": true,
          "internalType": "address",
          "name": "previousOwner",
          "type": "address"
        },
        {
          "indexed": true,
          "internalType": "address",
          "name": "newOwner",
          "type": "address"
        }
      ],
      "name": "OwnershipTransferred",
      "type": "event"
    },
    {
      "anonymous": false,
      "inputs": [
        {
          "indexed": true,
          "internalType": "address",
          "name": "user",
          "type": "address"
        },
        {
          "indexed": false,
          "internalType": "uint256",
          "name": "reward",
          "type": "uint256"
        }
      ],
      "name": "RewardPaid",
      "type": "event"
    },
    {
      "anonymous": false,
      "inputs": [
        {
          "indexed": true,
          "internalType": "address",
          "name": "user",
          "type": "address"
        },
        {
          "indexed": false,
          "internalType": "uint256",
          "name": "amount",
          "type": "uint256"
        }
      ],
      "name": "Staked",
      "type": "event"
    },
    {
      "anonymous": false,
      "inputs": [
        {
          "indexed": true,
          "internalType": "address",
          "name": "user",
          "type": "address"
        },
        {
          "indexed": false,
          "internalType": "uint256",
          "name": "amount",
          "type": "uint256"
        }
      ],
      "name": "Withdrawn",
      "type": "event"
    },
    {
      "inputs": [
        {
          "internalType": "address",
          "name": "account",
          "type": "address"
        }
      ],
      "name": "balanceOf",
      "outputs": [
        {
          "internalType": "uint256",
          "name": "",
          "type": "uint256"
        }
      ],
      "stateMutability": "view",
      "type": "function"
    },
    {
      "inputs": [
        {
          "internalType": "address",
          "name": "account",
          "type": "address"
        }
      ],
      "name": "earned",
      "outputs": [
        {
          "internalType": "uint256",
          "name": "",
          "type": "uint256"
        }
      ],
      "stateMutability": "view",
      "type": "function"
    },
    {
      "inputs": [],
      "name": "getLatestPrice",
      "outputs": [
        {
          "internalType": "int256",
          "name": "",
          "type": "int256"
        }
      ],
      "stateMutability": "view",
      "type": "function"
    },
    {
      "inputs": [],
      "name": "getReward",
      "outputs": [],
      "stateMutability": "nonpayable",
      "type": "function"
    },
    {
      "inputs": [],
      "name": "lastUpdateTime",
      "outputs": [
        {
          "internalType": "uint256",
          "name": "",
          "type": "uint256"
        }
      ],
      "stateMutability": "view",
      "type": "function"
    },
    {
      "inputs": [],
      "name": "owner",
      "outputs": [
        {
          "internalType": "address",
          "name": "",
          "type": "address"
        }
      ],
      "stateMutability": "view",
      "type": "function"
    },
    {
      "inputs": [],
      "name": "renounceOwnership",
      "outputs": [],
      "stateMutability": "nonpayable",
      "type": "function"
    },
    {
      "inputs": [],
      "name": "rewardPerToken",
      "outputs": [
        {
          "internalType": "uint256",
          "name": "",
          "type": "uint256"
        }
      ],
      "stateMutability": "view",
      "type": "function"
    },
    {
      "inputs": [],
      "name": "rewardPerTokenStored",
      "outputs": [
        {
          "internalType": "uint256",
          "name": "",
          "type": "uint256"
        }
      ],
      "stateMutability": "view",
      "type": "function"
    },
    {
      "inputs": [],
      "name": "rewardRate",
      "outputs": [
        {
          "internalType": "uint256",
          "name": "",
          "type": "uint256"
        }
      ],
      "stateMutability": "view",
      "type": "function"
    },
    {
      "inputs": [],
      "name": "rewardToken",
      "outputs": [
        {
          "internalType": "contract IERC20",
          "name": "",
          "type": "address"
        }
      ],
      "stateMutability": "view",
      "type": "function"
    },
    {
      "inputs": [
        {
          "internalType": "address",
          "name": "",
          "type": "address"
        }
      ],
      "name": "rewards",
      "outputs": [
        {
          "internalType": "uint256",
          "name": "",
          "type": "uint256"
        }
      ],
      "stateMutability": "view",
      "type": "function"
    },
    {
      "inputs": [
        {
          "internalType": "uint256",
          "name": "amount",
          "type": "uint256"
        }
      ],
      "name": "stake",
      "outputs": [],
      "stateMutability": "nonpayable",
      "type": "function"
    },
    {
      "inputs": [],
      "name": "stakingToken",
      "outputs": [
        {
          "internalType": "contract IERC20",
          "name": "",
          "type": "address"
        }
      ],
      "stateMutability": "view",
      "type": "function"
    },
    {
      "inputs": [],
      "name": "totalSupply",
      "outputs": [
        {
          "internalType": "uint256",
          "name": "",
          "type": "uint256"
        }
      ],
      "stateMutability": "view",
      "type": "function"
    },
    {
      "inputs": [
        {
          "internalType": "address",
          "name": "newOwner",
          "type": "address"
        }
      ],
      "name": "transferOwnership",
      "outputs": [],
      "stateMutability": "nonpayable",
      "type": "function"
    },
    {
      "inputs": [
        {
          "internalType": "address",
          "name": "",
          "type": "address"
        }
      ],
      "name": "userRewardPerTokenPaid",
      "outputs": [
        {
          "internalType": "uint256",
          "name": "",
          "type": "uint256"
        }
      ],
      "stateMutability": "view",
      "type": "function"
    },
    {
      "inputs": [
        {
          "internalType": "uint256",
          "name": "amount",
          "type": "uint256"
        }
      ],
      "name": "withdraw",
      "outputs": [],
      "stateMutability": "nonpayable",
      "type": "function"
    }
  ],
  "bytecode": "0x60806040526064600455348015610014575f80fd5b50604051610c91380380610c918339810160408190526100339161013c565b8060017f9b779b17422d0df92223018b32b4d1fa46e071723d6817e2486d003becc55f00556001600160a01b03811661008557604051631e4fbdf760e01b81525f600482015260240160405180910390fd5b61008e816100d2565b5050600180546001600160a01b039485166001600160a01b03199182161790915560028054938516938216939093179092556003805491909316911617905561018d565b5f80546001600160a01b038381166001600160a01b0319831681178455604051919092169283917f8be0079c531659141344cd1fd0a4f28419497f9722a3daafe3b4186f6b6457e09190a35050565b80516001600160a01b0381168114610137575f80fd5b919050565b5f805f806080858703121561014f575f80fd5b61015885610121565b935061016660208601610121565b925061017460408601610121565b915061018260608601610121565b905092959194509250565b610af78061019a5f395ff3fe608060405234801561000f575f80fd5b5060043610610110575f3560e01c80638b8763471161009e578063c8f33c911161006e578063c8f33c911461022c578063cd3daf9d14610235578063df136d651461023d578063f2fde38b14610246578063f7c618c114610259575f80fd5b80638b876347146101e25780638da5cb5b146102015780638e15f47314610211578063a694fc3a14610219575f80fd5b80633d18b912116100e45780633d18b9121461017657806370a082311461017e578063715018a6146101a657806372f702f3146101ae5780637b0a47ee146101d9575f80fd5b80628cc262146101145780630700037d1461013a57806318160ddd146101595780632e1a7d4d14610161575b5f80fd5b610127610122366004610964565b61026c565b6040519081526020015b60405180910390f35b610127610148366004610964565b60086020525f908152604090205481565b600a54610127565b61017461016f366004610991565b6102e7565b005b610174610486565b61012761018c366004610964565b6001600160a01b03165f9081526009602052604090205490565b6101746105cb565b6001546101c1906001600160a01b031681565b6040516001600160a01b039091168152602001610131565b61012760045481565b6101276101f0366004610964565b60076020525f908152604090205481565b5f546001600160a01b03166101c1565b6101276105dc565b610174610227366004610991565b61065d565b61012760055481565b6101276107dc565b61012760065481565b610174610254366004610964565b610865565b6002546101c1906001600160a01b031681565b6001600160a01b0381165f908152600860209081526040808320546007909252822054670de0b6b3a7640000906102a16107dc565b6102ab91906109bc565b6001600160a01b0385165f908152600960205260409020546102cd91906109cf565b6102d791906109e6565b6102e19190610a05565b92915050565b6102ef61089f565b336102f86107dc565b600655426005556001600160a01b03811615610342576103178161026c565b6001600160a01b0382165f908152600860209081526040808320939093556006546007909152919020555b5f821161038a5760405162461bcd60e51b8152602060048201526011602482015270043616e6e6f74207769746864726177203607c1b60448201526064015b60405180910390fd5b81600a5f82825461039b91906109bc565b9091555050335f90815260096020526040812080548492906103be9084906109bc565b909155505060015460405163a9059cbb60e01b8152336004820152602481018490526001600160a01b039091169063a9059cbb906044016020604051808303815f875af1158015610411573d5f803e3d5ffd5b505050506040513d601f19601f820116820180604052508101906104359190610a18565b5060405182815233907f7084f5476618d8e60b11ef0d7d3f06914655adb8793e28ff7f018d4c76d505d5906020015b60405180910390a25061048360015f80516020610aa283398151915255565b50565b61048e61089f565b336104976107dc565b600655426005556001600160a01b038116156104e1576104b68161026c565b6001600160a01b0382165f908152600860209081526040808320939093556006546007909152919020555b335f9081526008602052604090205480156105b157335f8181526008602052604080822091909155600254905163a9059cbb60e01b81526004810192909252602482018390526001600160a01b03169063a9059cbb906044016020604051808303815f875af1158015610556573d5f803e3d5ffd5b505050506040513d601f19601f8201168201806040525081019061057a9190610a18565b5060405181815233907fe2403640ba68fed3a2f88b7557551d1993f84b99bb10ff833f0cf8db0c5e04869060200160405180910390a25b50506105c960015f80516020610aa283398151915255565b565b6105d36108ba565b6105c95f6108e6565b5f8060035f9054906101000a90046001600160a01b03166001600160a01b031663feaf968c6040518163ffffffff1660e01b815260040160a060405180830381865afa15801561062e573d5f803e3d5ffd5b505050506040513d601f19601f820116820180604052508101906106529190610a55565b509195945050505050565b61066561089f565b3361066e6107dc565b600655426005556001600160a01b038116156106b85761068d8161026c565b6001600160a01b0382165f908152600860209081526040808320939093556006546007909152919020555b5f82116106f85760405162461bcd60e51b815260206004820152600e60248201526d043616e6e6f74207374616b6520360941b6044820152606401610381565b81600a5f8282546107099190610a05565b9091555050335f908152600960205260408120805484929061072c908490610a05565b90915550506001546040516323b872dd60e01b8152336004820152306024820152604481018490526001600160a01b03909116906323b872dd906064016020604051808303815f875af1158015610785573d5f803e3d5ffd5b505050506040513d601f19601f820116820180604052508101906107a99190610a18565b5060405182815233907f9e71bc8eea02a63969f509818f2dafb9254532904319f9dbda79b67bd34a5f3d90602001610464565b5f600a545f036107ed575060065490565b5f6107f66105dc565b90505f64174876e8008260045461080d91906109cf565b61081791906109e6565b9050600a54816005544261082b91906109bc565b61083591906109cf565b61084790670de0b6b3a76400006109cf565b61085191906109e6565b60065461085e9190610a05565b9250505090565b61086d6108ba565b6001600160a01b03811661089657604051631e4fbdf760e01b81525f6004820152602401610381565b610483816108e6565b6108a7610935565b60025f80516020610aa283398151915255565b5f546001600160a01b031633146105c95760405163118cdaa760e01b8152336004820152602401610381565b5f80546001600160a01b038381166001600160a01b0319831681178455604051919092169283917f8be0079c531659141344cd1fd0a4f28419497f9722a3daafe3b4186f6b6457e09190a35050565b5f80516020610aa2833981519152546002036105c957604051633ee5aeb560e01b815260040160405180910390fd5b5f60208284031215610974575f80fd5b81356001600160a01b038116811461098a575f80fd5b9392505050565b5f602082840312156109a1575f80fd5b5035919050565b634e487b7160e01b5f52601160045260245ffd5b818103818111156102e1576102e16109a8565b80820281158282048414176102e1576102e16109a8565b5f82610a0057634e487b7160e01b5f52601260045260245ffd5b500490565b808201808211156102e1576102e16109a8565b5f60208284031215610a28575f80fd5b8151801515811461098a575f80fd5b805169ffffffffffffffffffff81168114610a50575f80fd5b919050565b5f805f805f60a08688031215610a69575f80fd5b610a7286610a37565b9450602086015193506040860151925060608601519150610a9560808701610a37565b9050929550929590935056fe9b779b17422d0df92223018b32b4d1fa46e071723d6817e2486d003becc55f00a2646970667358221220622d6a762147a3745d3b2b232ddd66fb2d2520e84938788279846be89ca726f864736f6c63430008180033",
  "linkReferences": {},
  "deployedLinkReferences": {}
}